8=FIX.4.1^A9=112^A35=0^A49=BRKR^A56=INVMGR^A34=235^A52=19980604-07:58:28^A112=19980604-07:58:28^A10=157^A